{
  "_format": "hh-sol-artifact-1",
  "contractName": "CourseNFT",
  "sourceName": "contracts/CourseNFT.sol",
  "abi": [
    {
      "inputs": [
        {
          "internalType": "string",
          "name": "name_",
          "type": "string"
        },
        {
          "internalType": "string",
          "name": "symbol_",
          "type": "string"
        }
      ],
      "stateMutability": "nonpayable",
      "type": "constructor"
    },
    {
      "inputs": [],
      "name": "ERC721EnumerableForbiddenBatchMint",
      "type": "error"
    },
    {
      "inputs": [
        {
          "internalType": "address",
          "name": "sender",
          "type": "address"
        },
        {
          "internalType": "uint256",
          "name": "tokenId",
          "type": "uint256"
        },
        {
          "internalType": "address",
          "name": "owner",
          "type": "address"
        }
      ],
      "name": "ERC721IncorrectOwner",
      "type": "error"
    },
    {
      "inputs": [
        {
          "internalType": "address",
          "name": "operator",
          "type": "address"
        },
        {
          "internalType": "uint256",
          "name": "tokenId",
          "type": "uint256"
        }
      ],
      "name": "ERC721InsufficientApproval",
      "type": "error"
    },
    {
      "inputs": [
        {
          "internalType": "address",
          "name": "approver",
          "type": "address"
        }
      ],
      "name": "ERC721InvalidApprover",
      "type": "error"
    },
    {
      "inputs": [
        {
          "internalType": "address",
          "name": "operator",
          "type": "address"
        }
      ],
      "name": "ERC721InvalidOperator",
      "type": "error"
    },
    {
      "inputs": [
        {
          "internalType": "address",
          "name": "owner",
          "type": "address"
        }
      ],
      "name": "ERC721InvalidOwner",
      "type": "error"
    },
    {
      "inputs": [
        {
          "internalType": "address",
          "name": "receiver",
          "type": "address"
        }
      ],
      "name": "ERC721InvalidReceiver",
      "type": "error"
    },
    {
      "inputs": [
        {
          "internalType": "address",
          "name": "sender",
          "type": "address"
        }
      ],
      "name": "ERC721InvalidSender",
      "type": "error"
    },
    {
      "inputs": [
        {
          "internalType": "uint256",
          "name": "tokenId",
          "type": "uint256"
        }
      ],
      "name": "ERC721NonexistentToken",
      "type": "error"
    },
    {
      "inputs": [
        {
          "internalType": "address",
          "name": "owner",
          "type": "address"
        },
        {
          "internalType": "uint256",
          "name": "index",
          "type": "uint256"
        }
      ],
      "name": "ERC721OutOfBoundsIndex",
      "type": "error"
    },
    {
      "inputs": [
        {
          "internalType": "address",
          "name": "owner",
          "type": "address"
        }
      ],
      "name": "OwnableInvalidOwner",
      "type": "error"
    },
    {
      "inputs": [
        {
          "internalType": "address",
          "name": "account",
          "type": "address"
        }
      ],
      "name": "OwnableUnauthorizedAccount",
      "type": "error"
    },
    {
      "anonymous": false,
      "inputs": [
        {
          "indexed": true,
          "internalType": "address",
          "name": "owner",
          "type": "address"
        },
        {
          "indexed": true,
          "internalType": "address",
          "name": "approved",
          "type": "address"
        },
        {
          "indexed": true,
          "internalType": "uint256",
          "name": "tokenId",
          "type": "uint256"
        }
      ],
      "name": "Approval",
      "type": "event"
    },
    {
      "anonymous": false,
      "inputs": [
        {
          "indexed": true,
          "internalType": "address",
          "name": "owner",
          "type": "address"
        },
        {
          "indexed": true,
          "internalType": "address",
          "name": "operator",
          "type": "address"
        },
        {
          "indexed": false,
          "internalType": "bool",
          "name": "approved",
          "type": "bool"
        }
      ],
      "name": "ApprovalForAll",
      "type": "event"
    },
    {
      "anonymous": false,
      "inputs": [
        {
          "indexed": true,
          "internalType": "address",
          "name": "previousOwner",
          "type": "address"
        },
        {
          "indexed": true,
          "internalType": "address",
          "name": "newOwner",
          "type": "address"
        }
      ],
      "name": "OwnershipTransferred",
      "type": "event"
    },
    {
      "anonymous": false,
      "inputs": [
        {
          "indexed": true,
          "internalType": "address",
          "name": "from",
          "type": "address"
        },
        {
          "indexed": true,
          "internalType": "address",
          "name": "to",
          "type": "address"
        },
        {
          "indexed": true,
          "internalType": "uint256",
          "name": "tokenId",
          "type": "uint256"
        }
      ],
      "name": "Transfer",
      "type": "event"
    },
    {
      "inputs": [
        {
          "internalType": "address",
          "name": "to",
          "type": "address"
        },
        {
          "internalType": "uint256",
          "name": "tokenId",
          "type": "uint256"
        }
      ],
      "name": "approve",
      "outputs": [],
      "stateMutability": "nonpayable",
      "type": "function"
    },
    {
      "inputs": [
        {
          "internalType": "address",
          "name": "owner",
          "type": "address"
        }
      ],
      "name": "balanceOf",
      "outputs": [
        {
          "internalType": "uint256",
          "name": "",
          "type": "uint256"
        }
      ],
      "stateMutability": "view",
      "type": "function"
    },
    {
      "inputs": [
        {
          "internalType": "uint256",
          "name": "tokenId",
          "type": "uint256"
        }
      ],
      "name": "getApproved",
      "outputs": [
        {
          "internalType": "address",
          "name": "",
          "type": "address"
        }
      ],
      "stateMutability": "view",
      "type": "function"
    },
    {
      "inputs": [
        {
          "internalType": "address",
          "name": "owner",
          "type": "address"
        }
      ],
      "name": "getOwnedNFTDetails",
      "outputs": [
        {
          "internalType": "uint256[]",
          "name": "tokenIds",
          "type": "uint256[]"
        },
        {
          "internalType": "string[]",
          "name": "uris",
          "type": "string[]"
        }
      ],
      "stateMutability": "view",
      "type": "function"
    },
    {
      "inputs": [
        {
          "internalType": "address",
          "name": "owner",
          "type": "address"
        }
      ],
      "name": "getOwnedNFTs",
      "outputs": [
        {
          "internalType": "uint256[]",
          "name": "",
          "type": "uint256[]"
        }
      ],
      "stateMutability": "view",
      "type": "function"
    },
    {
      "inputs": [
        {
          "internalType": "address",
          "name": "owner",
          "type": "address"
        },
        {
          "internalType": "address",
          "name": "operator",
          "type": "address"
        }
      ],
      "name": "isApprovedForAll",
      "outputs": [
        {
          "internalType": "bool",
          "name": "",
          "type": "bool"
        }
      ],
      "stateMutability": "view",
      "type": "function"
    },
    {
      "inputs": [],
      "name": "name",
      "outputs": [
        {
          "internalType": "string",
          "name": "",
          "type": "string"
        }
      ],
      "stateMutability": "view",
      "type": "function"
    },
    {
      "inputs": [],
      "name": "owner",
      "outputs": [
        {
          "internalType": "address",
          "name": "",
          "type": "address"
        }
      ],
      "stateMutability": "view",
      "type": "function"
    },
    {
      "inputs": [
        {
          "internalType": "uint256",
          "name": "tokenId",
          "type": "uint256"
        }
      ],
      "name": "ownerOf",
      "outputs": [
        {
          "internalType": "address",
          "name": "",
          "type": "address"
        }
      ],
      "stateMutability": "view",
      "type": "function"
    },
    {
      "inputs": [],
      "name": "renounceOwnership",
      "outputs": [],
      "stateMutability": "nonpayable",
      "type": "function"
    },
    {
      "inputs": [
        {
          "internalType": "address",
          "name": "to",
          "type": "address"
        },
        {
          "internalType": "string",
          "name": "tokenURI_",
          "type": "string"
        }
      ],
      "name": "safeMint",
      "outputs": [],
      "stateMutability": "nonpayable",
      "type": "function"
    },
    {
      "inputs": [
        {
          "internalType": "address",
          "name": "from",
          "type": "address"
        },
        {
          "internalType": "address",
          "name": "to",
          "type": "address"
        },
        {
          "internalType": "uint256",
          "name": "tokenId",
          "type": "uint256"
        }
      ],
      "name": "safeTransferFrom",
      "outputs": [],
      "stateMutability": "nonpayable",
      "type": "function"
    },
    {
      "inputs": [
        {
          "internalType": "address",
          "name": "from",
          "type": "address"
        },
        {
          "internalType": "address",
          "name": "to",
          "type": "address"
        },
        {
          "internalType": "uint256",
          "name": "tokenId",
          "type": "uint256"
        },
        {
          "internalType": "bytes",
          "name": "data",
          "type": "bytes"
        }
      ],
      "name": "safeTransferFrom",
      "outputs": [],
      "stateMutability": "nonpayable",
      "type": "function"
    },
    {
      "inputs": [
        {
          "internalType": "address",
          "name": "operator",
          "type": "address"
        },
        {
          "internalType": "bool",
          "name": "approved",
          "type": "bool"
        }
      ],
      "name": "setApprovalForAll",
      "outputs": [],
      "stateMutability": "nonpayable",
      "type": "function"
    },
    {
      "inputs": [
        {
          "internalType": "bytes4",
          "name": "interfaceId",
          "type": "bytes4"
        }
      ],
      "name": "supportsInterface",
      "outputs": [
        {
          "internalType": "bool",
          "name": "",
          "type": "bool"
        }
      ],
      "stateMutability": "view",
      "type": "function"
    },
    {
      "inputs": [],
      "name": "symbol",
      "outputs": [
        {
          "internalType": "string",
          "name": "",
          "type": "string"
        }
      ],
      "stateMutability": "view",
      "type": "function"
    },
    {
      "inputs": [
        {
          "internalType": "uint256",
          "name": "index",
          "type": "uint256"
        }
      ],
      "name": "tokenByIndex",
      "outputs": [
        {
          "internalType": "uint256",
          "name": "",
          "type": "uint256"
        }
      ],
      "stateMutability": "view",
      "type": "function"
    },
    {
      "inputs": [
        {
          "internalType": "address",
          "name": "owner",
          "type": "address"
        },
        {
          "internalType": "uint256",
          "name": "index",
          "type": "uint256"
        }
      ],
      "name": "tokenOfOwnerByIndex",
      "outputs": [
        {
          "internalType": "uint256",
          "name": "",
          "type": "uint256"
        }
      ],
      "stateMutability": "view",
      "type": "function"
    },
    {
      "inputs": [
        {
          "internalType": "uint256",
          "name": "tokenId",
          "type": "uint256"
        }
      ],
      "name": "tokenURI",
      "outputs": [
        {
          "internalType": "string",
          "name": "",
          "type": "string"
        }
      ],
      "stateMutability": "view",
      "type": "function"
    },
    {
      "inputs": [],
      "name": "totalSupply",
      "outputs": [
        {
          "internalType": "uint256",
          "name": "",
          "type": "uint256"
        }
      ],
      "stateMutability": "view",
      "type": "function"
    },
    {
      "inputs": [
        {
          "internalType": "address",
          "name": "from",
          "type": "address"
        },
        {
          "internalType": "address",
          "name": "to",
          "type": "address"
        },
        {
          "internalType": "uint256",
          "name": "tokenId",
          "type": "uint256"
        }
      ],
      "name": "transferFrom",
      "outputs": [],
      "stateMutability": "nonpayable",
      "type": "function"
    },
    {
      "inputs": [
        {
          "internalType": "address",
          "name": "newOwner",
          "type": "address"
        }
      ],
      "name": "transferOwnership",
      "outputs": [],
      "stateMutability": "nonpayable",
      "type": "function"
    }
  ],
  "bytecode": "0x608060405234801561001057600080fd5b506040516135953803806135958339818101604052810190610032919061031b565b338282816000908161004491906105b4565b50806001908161005491906105b4565b505050600073ffffffffffffffffffffffffffffffffffffffff168173ffffffffffffffffffffffffffffffffffffffff16036100c95760006040517f1e4fbdf70000000000000000000000000000000000000000000000000000000081526004016100c091906106c7565b60405180910390fd5b6100d8816100e060201b60201c565b5050506106e2565b6000600a60009054906101000a900473ffffffffffffffffffffffffffffffffffffffff16905081600a60006101000a81548173ffffffffffffffffffffffffffffffffffffffff021916908373ffffffffffffffffffffffffffffffffffffffff1602179055508173ffffffffffffffffffffffffffffffffffffffff168173ffffffffffffffffffffffffffffffffffffffff167f8be0079c531659141344cd1fd0a4f28419497f9722a3daafe3b4186f6b6457e060405160405180910390a35050565b6000604051905090565b600080fd5b600080fd5b600080fd5b600080fd5b6000601f19601f8301169050919050565b7f4e487b7100000000000000000000000000000000000000000000000000000000600052604160045260246000fd5b61020d826101c4565b810181811067ffffffffffffffff8211171561022c5761022b6101d5565b5b80604052505050565b600061023f6101a6565b905061024b8282610204565b919050565b600067ffffffffffffffff82111561026b5761026a6101d5565b5b610274826101c4565b9050602081019050919050565b60005b8381101561029f578082015181840152602081019050610284565b60008484015250505050565b60006102be6102b984610250565b610235565b9050828152602081018484840111156102da576102d96101bf565b5b6102e5848285610281565b509392505050565b600082601f830112610302576103016101ba565b5b81516103128482602086016102ab565b91505092915050565b60008060408385031215610332576103316101b0565b5b600083015167ffffffffffffffff8111156103505761034f6101b5565b5b61035c858286016102ed565b925050602083015167ffffffffffffffff81111561037d5761037c6101b5565b5b610389858286016102ed565b9150509250929050565b600081519050919050565b7f4e487b7100000000000000000000000000000000000000000000000000000000600052602260045260246000fd5b600060028204905060018216806103e557607f821691505b6020821081036103f8576103f761039e565b5b50919050565b60008190508160005260206000209050919050565b60006020601f8301049050919050565b600082821b905092915050565b6000600883026104607fffffffffffffffffffffffffffffffffffffffffffffffffffffffffffffffff82610423565b61046a8683610423565b95508019841693508086168417925050509392505050565b6000819050919050565b6000819050919050565b60006104b16104ac6104a784610482565b61048c565b610482565b9050919050565b6000819050919050565b6104cb83610496565b6104df6104d7826104b8565b848454610430565b825550505050565b600090565b6104f46104e7565b6104ff8184846104c2565b505050565b5b81811015610523576105186000826104ec565b600181019050610505565b5050565b601f82111561056857610539816103fe565b61054284610413565b81016020851015610551578190505b61056561055d85610413565b830182610504565b50505b505050565b600082821c905092915050565b600061058b6000198460080261056d565b1980831691505092915050565b60006105a4838361057a565b9150826002028217905092915050565b6105bd82610393565b67ffffffffffffffff8111156105d6576105d56101d5565b5b6105e082546103cd565b6105eb828285610527565b600060209050601f83116001811461061e576000841561060c578287015190505b6106168582610598565b86555061067e565b601f19841661062c866103fe565b60005b828110156106545784890151825560018201915060208501945060208101905061062f565b86831015610671578489015161066d601f89168261057a565b8355505b6001600288020188555050505b505050505050565b600073ffffffffffffffffffffffffffffffffffffffff82169050919050565b60006106b182610686565b9050919050565b6106c1816106a6565b82525050565b60006020820190506106dc60008301846106b8565b92915050565b612ea4806106f16000396000f3fe608060405234801561001057600080fd5b50600436106101425760003560e01c806370a08231116100b8578063b402f5831161007c578063b402f58314610389578063b88d4fde146103ba578063c87b56dd146103d6578063d204c45e14610406578063e985e9c514610422578063f2fde38b1461045257610142565b806370a08231146102f7578063715018a6146103275780638da5cb5b1461033157806395d89b411461034f578063a22cb4651461036d57610142565b806318160ddd1161010a57806318160ddd1461021157806323b872dd1461022f5780632f745c591461024b57806342842e0e1461027b5780634f6ccce7146102975780636352211e146102c757610142565b806301ffc9a71461014757806306fdde0314610177578063081812fc14610195578063095ea7b3146101c557806318148f1b146101e1575b600080fd5b610161600480360381019061015c919061206a565b61046e565b60405161016e91906120b2565b60405180910390f35b61017f610480565b60405161018c919061215d565b60405180910390f35b6101af60048036038101906101aa91906121b5565b610512565b6040516101bc9190612223565b60405180910390f35b6101df60048036038101906101da919061226a565b61052e565b005b6101fb60048036038101906101f691906122aa565b610544565b6040516102089190612395565b60405180910390f35b6102196105ec565b60405161022691906123c6565b60405180910390f35b610249600480360381019061024491906123e1565b6105f9565b005b6102656004803603810190610260919061226a565b6106fb565b60405161027291906123c6565b60405180910390f35b610295600480360381019061029091906123e1565b6107a4565b005b6102b160048036038101906102ac91906121b5565b6107c4565b6040516102be91906123c6565b60405180910390f35b6102e160048036038101906102dc91906121b5565b61083a565b6040516102ee9190612223565b60405180910390f35b610311600480360381019061030c91906122aa565b61084c565b60405161031e91906123c6565b60405180910390f35b61032f610906565b005b61033961091a565b6040516103469190612223565b60405180910390f35b610357610944565b604051610364919061215d565b60405180910390f35b61038760048036038101906103829190612460565b6109d6565b005b6103a3600480360381019061039e91906122aa565b6109ec565b6040516103b19291906125ac565b60405180910390f35b6103d460048036038101906103cf9190612718565b610b9f565b005b6103f060048036038101906103eb91906121b5565b610bc4565b6040516103fd919061215d565b60405180910390f35b610420600480360381019061041b919061283c565b610ce0565b005b61043c60048036038101906104379190612898565b610d33565b60405161044991906120b2565b60405180910390f35b61046c600480360381019061046791906122aa565b610dc7565b005b600061047982610e4d565b9050919050565b60606000805461048f90612907565b80601f01602080910402602001604051908101604052809291908181526020018280546104bb90612907565b80156105085780601f106104dd57610100808354040283529160200191610508565b820191906000526020600020905b8154815290600101906020018083116104eb57829003601f168201915b5050505050905090565b600061051d82610ec7565b5061052782610f4f565b9050919050565b610540828261053b610f8c565b610f94565b5050565b606060006105518361084c565b905060008167ffffffffffffffff81111561056f5761056e6125ed565b5b60405190808252806020026020018201604052801561059d5781602001602082028036833780820191505090505b50905060005b828110156105e1576105b585826106fb565b8282815181106105c8576105c7612938565b5b60200260200101818152505080806001019150506105a3565b508092505050919050565b6000600880549050905090565b600073ffffffffffffffffffffffffffffffffffffffff168273ffffffffffffffffffffffffffffffffffffffff160361066b5760006040517f64a0ae920000000000000000000000000000000000000000000000000000000081526004016106629190612223565b60405180910390fd5b600061067f838361067a610f8c565b610fa6565b90508373ffffffffffffffffffffffffffffffffffffffff168173ffffffffffffffffffffffffffffffffffffffff16146106f5578382826040517f64283d7b0000000000000000000000000000000000000000000000000000000081526004016106ec93929190612967565b60405180910390fd5b50505050565b60006107068361084c565b821061074b5782826040517fa57d13dc00000000000000000000000000000000000000000000000000000000815260040161074292919061299e565b60405180910390fd5b600660008473ffffffffffffffffffffffffffffffffffffffff1673ffffffffffffffffffffffffffffffffffffffff168152602001908152602001600020600083815260200190815260200160002054905092915050565b6107bf83838360405180602001604052806000815250610b9f565b505050565b60006107ce6105ec565b8210610814576000826040517fa57d13dc00000000000000000000000000000000000000000000000000000000815260040161080b92919061299e565b60405180910390fd5b6008828154811061082857610827612938565b5b90600052602060002001549050919050565b600061084582610ec7565b9050919050565b60008073ffffffffffffffffffffffffffffffffffffffff168273ffffffffffffffffffffffffffffffffffffffff16036108bf5760006040517f89c62b640000000000000000000000000000000000000000000000000000000081526004016108b69190612223565b60405180910390fd5b600360008373ffffffffffffffffffffffffffffffffffffffff1673ffffffffffffffffffffffffffffffffffffffff168152602001908152602001600020549050919050565b61090e610fbc565b6109186000611043565b565b6000600a60009054906101000a900473ffffffffffffffffffffffffffffffffffffffff16905090565b60606001805461095390612907565b80601f016020809104026020016040519081016040528092919081815260200182805461097f90612907565b80156109cc5780601f106109a1576101008083540402835291602001916109cc565b820191906000526020600020905b8154815290600101906020018083116109af57829003601f168201915b5050505050905090565b6109e86109e1610f8c565b8383611109565b5050565b60608060006109fa8461084c565b90508067ffffffffffffffff811115610a1657610a156125ed565b5b604051908082528060200260200182016040528015610a445781602001602082028036833780820191505090505b5092508067ffffffffffffffff811115610a6157610a606125ed565b5b604051908082528060200260200182016040528015610a9457816020015b6060815260200190600190039081610a7f5790505b50915060005b81811015610b98576000610aae86836106fb565b905080858381518110610ac457610ac3612938565b5b602002602001018181525050600b60008281526020019081526020016000208054610aee90612907565b80601f0160208091040260200160405190810160405280929190818152602001828054610b1a90612907565b8015610b675780601f10610b3c57610100808354040283529160200191610b67565b820191906000526020600020905b815481529060010190602001808311610b4a57829003601f168201915b5050505050848381518110610b7f57610b7e612938565b5b6020026020010181905250508080600101915050610a9a565b5050915091565b610baa8484846105f9565b610bbe610bb5610f8c565b85858585611278565b50505050565b6060600073ffffffffffffffffffffffffffffffffffffffff16610be783611429565b73ffffffffffffffffffffffffffffffffffffffff1603610c3d576040517f08c379a0000000000000000000000000000000000000000000000000000000008152600401610c3490612a13565b60405180910390fd5b600b60008381526020019081526020016000208054610c5b90612907565b80601f0160208091040260200160405190810160405280929190818152602001828054610c8790612907565b8015610cd45780601f10610ca957610100808354040283529160200191610cd4565b820191906000526020600020905b815481529060010190602001808311610cb757829003601f168201915b50505050509050919050565b610ce8610fbc565b6000600c6000815480929190610cfd90612a62565b919050559050610d0d8382611466565b81600b60008381526020019081526020016000209081610d2d9190612c56565b50505050565b6000600560008473ffffffffffffffffffffffffffffffffffffffff1673ffffffffffffffffffffffffffffffffffffffff16815260200190815260200160002060008373ffffffffffffffffffffffffffffffffffffffff1673ffffffffffffffffffffffffffffffffffffffff16815260200190815260200160002060009054906101000a900460ff16905092915050565b610dcf610fbc565b600073ffffffffffffffffffffffffffffffffffffffff168173ffffffffffffffffffffffffffffffffffffffff1603610e415760006040517f1e4fbdf7000000000000000000000000000000000000000000000000000000008152600401610e389190612223565b60405180910390fd5b610e4a81611043565b50565b60007f780e9d63000000000000000000000000000000000000000000000000000000007bffffffffffffffffffffffffffffffffffffffffffffffffffffffff1916827bffffffffffffffffffffffffffffffffffffffffffffffffffffffff19161480610ec05750610ebf82611484565b5b9050919050565b600080610ed383611429565b9050600073ffffffffffffffffffffffffffffffffffffffff168173ffffffffffffffffffffffffffffffffffffffff1603610f4657826040517f7e273289000000000000000000000000000000000000000000000000000000008152600401610f3d91906123c6565b60405180910390fd5b80915050919050565b60006004600083815260200190815260200160002060009054906101000a900473ffffffffffffffffffffffffffffffffffffffff169050919050565b600033905090565b610fa18383836001611566565b505050565b6000610fb384848461172b565b90509392505050565b610fc4610f8c565b73ffffffffffffffffffffffffffffffffffffffff16610fe261091a565b73ffffffffffffffffffffffffffffffffffffffff161461104157611005610f8c565b6040517f118cdaa70000000000000000000000000000000000000000000000000000000081526004016110389190612223565b60405180910390fd5b565b6000600a60009054906101000a900473ffffffffffffffffffffffffffffffffffffffff16905081600a60006101000a81548173ffffffffffffffffffffffffffffffffffffffff021916908373ffffffffffffffffffffffffffffffffffffffff1602179055508173ffffffffffffffffffffffffffffffffffffffff168173ffffffffffffffffffffffffffffffffffffffff167f8be0079c531659141344cd1fd0a4f28419497f9722a3daafe3b4186f6b6457e060405160405180910390a35050565b600073ffffffffffffffffffffffffffffffffffffffff168273ffffffffffffffffffffffffffffffffffffffff160361117a57816040517f5b08ba180000000000000000000000000000000000000000000000000000000081526004016111719190612223565b60405180910390fd5b80600560008573ffffffffffffffffffffffffffffffffffffffff1673ffffffffffffffffffffffffffffffffffffffff16815260200190815260200160002060008473ffffffffffffffffffffffffffffffffffffffff1673ffffffffffffffffffffffffffffffffffffffff16815260200190815260200160002060006101000a81548160ff0219169083151502179055508173ffffffffffffffffffffffffffffffffffffffff168373ffffffffffffffffffffffffffffffffffffffff167f17307eab39ab6107e8899845ad3d59bd9653f200f220920489ca2b5937696c318360405161126b91906120b2565b60405180910390a3505050565b60008373ffffffffffffffffffffffffffffffffffffffff163b1115611422578273ffffffffffffffffffffffffffffffffffffffff1663150b7a02868685856040518563ffffffff1660e01b81526004016112d79493929190612d7d565b6020604051808303816000875af192505050801561131357506040513d601f19601f820116820180604052508101906113109190612dde565b60015b611397573d8060008114611343576040519150601f19603f3d011682016040523d82523d6000602084013e611348565b606091505b50600081510361138f57836040517f64a0ae920000000000000000000000000000000000000000000000000000000081526004016113869190612223565b60405180910390fd5b805181602001fd5b63150b7a0260e01b7bffffffffffffffffffffffffffffffffffffffffffffffffffffffff1916817bffffffffffffffffffffffffffffffffffffffffffffffffffffffff19161461142057836040517f64a0ae920000000000000000000000000000000000000000000000000000000081526004016114179190612223565b60405180910390fd5b505b5050505050565b60006002600083815260200190815260200160002060009054906101000a900473ffffffffffffffffffffffffffffffffffffffff169050919050565b611480828260405180602001604052806000815250611848565b5050565b60007f80ac58cd000000000000000000000000000000000000000000000000000000007bffffffffffffffffffffffffffffffffffffffffffffffffffffffff1916827bffffffffffffffffffffffffffffffffffffffffffffffffffffffff1916148061154f57507f5b5e139f000000000000000000000000000000000000000000000000000000007bffffffffffffffffffffffffffffffffffffffffffffffffffffffff1916827bffffffffffffffffffffffffffffffffffffffffffffffffffffffff1916145b8061155f575061155e8261186c565b5b9050919050565b808061159f5750600073ffffffffffffffffffffffffffffffffffffffff168273ffffffffffffffffffffffffffffffffffffffff1614155b156116d35760006115af84610ec7565b9050600073ffffffffffffffffffffffffffffffffffffffff168373ffffffffffffffffffffffffffffffffffffffff161415801561161a57508273ffffffffffffffffffffffffffffffffffffffff168173ffffffffffffffffffffffffffffffffffffffff1614155b801561162d575061162b8184610d33565b155b1561166f57826040517fa9fbf51f0000000000000000000000000000000000000000000000000000000081526004016116669190612223565b60405180910390fd5b81156116d157838573ffffffffffffffffffffffffffffffffffffffff168273ffffffffffffffffffffffffffffffffffffffff167f8c5be1e5ebec7d5bd14f71427d1e84f3dd0314c0f7b2291e5b200ac8c7c3b92560405160405180910390a45b505b836004600085815260200190815260200160002060006101000a81548173ffffffffffffffffffffffffffffffffffffffff021916908373ffffffffffffffffffffffffffffffffffffffff16021790555050505050565b6000806117398585856118d6565b9050600073ffffffffffffffffffffffffffffffffffffffff168173ffffffffffffffffffffffffffffffffffffffff160361177d5761177884611af0565b6117bc565b8473ffffffffffffffffffffffffffffffffffffffff168173ffffffffffffffffffffffffffffffffffffffff16146117bb576117ba8185611b39565b5b5b600073ffffffffffffffffffffffffffffffffffffffff168573ffffffffffffffffffffffffffffffffffffffff16036117fe576117f984611c24565b61183d565b8473ffffffffffffffffffffffffffffffffffffffff168173ffffffffffffffffffffffffffffffffffffffff161461183c5761183b8585611cf5565b5b5b809150509392505050565b6118528383611d80565b61186761185d610f8c565b6000858585611278565b505050565b60007f01ffc9a7000000000000000000000000000000000000000000000000000000007bffffffffffffffffffffffffffffffffffffffffffffffffffffffff1916827bffffffffffffffffffffffffffffffffffffffffffffffffffffffff1916149050919050565b6000806118e284611429565b9050600073ffffffffffffffffffffffffffffffffffffffff168373ffffffffffffffffffffffffffffffffffffffff161461192457611923818486611e79565b5b600073ffffffffffffffffffffffffffffffffffffffff168173ffffffffffffffffffffffffffffffffffffffff16146119b557611966600085600080611566565b6001600360008373ffffffffffffffffffffffffffffffffffffffff1673ffffffffffffffffffffffffffffffffffffffff168152602001908152602001600020600082825403925050819055505b600073ffffffffffffffffffffffffffffffffffffffff168573ffffffffffffffffffffffffffffffffffffffff1614611a38576001600360008773ffffffffffffffffffffffffffffffffffffffff1673ffffffffffffffffffffffffffffffffffffffff168152602001908152602001600020600082825401925050819055505b846002600086815260200190815260200160002060006101000a81548173ffffffffffffffffffffffffffffffffffffffff021916908373ffffffffffffffffffffffffffffffffffffffff160217905550838573ffffffffffffffffffffffffffffffffffffffff168273ffffffffffffffffffffffffffffffffffffffff167fddf252ad1be2c89b69c2b068fc378daa952ba7f163c4a11628f55a4df523b3ef60405160405180910390a4809150509392505050565b6008805490506009600083815260200190815260200160002081905550600881908060018154018082558091505060019003906000526020600020016000909190919091505550565b6000611b448361084c565b90506000600760008481526020019081526020016000205490506000600660008673ffffffffffffffffffffffffffffffffffffffff1673ffffffffffffffffffffffffffffffffffffffff1681526020019081526020016000209050828214611bf05760008160008581526020019081526020016000205490508082600085815260200190815260200160002081905550826007600083815260200190815260200160002081905550505b6007600085815260200190815260200160002060009055806000848152602001908152602001600020600090555050505050565b60006001600880549050611c389190612e0b565b9050600060096000848152602001908152602001600020549050600060088381548110611c6857611c67612938565b5b906000526020600020015490508060088381548110611c8a57611c89612938565b5b906000526020600020018190555081600960008381526020019081526020016000208190555060096000858152602001908152602001600020600090556008805480611cd957611cd8612e3f565b5b6001900381819060005260206000200160009055905550505050565b60006001611d028461084c565b611d0c9190612e0b565b905081600660008573ffffffffffffffffffffffffffffffffffffffff1673ffffffffffffffffffffffffffffffffffffffff168152602001908152602001600020600083815260200190815260200160002081905550806007600084815260200190815260200160002081905550505050565b600073ffffffffffffffffffffffffffffffffffffffff168273ffffffffffffffffffffffffffffffffffffffff1603611df25760006040517f64a0ae92000000000000000000000000000000000000000000000000000000008152600401611de99190612223565b60405180910390fd5b6000611e0083836000610fa6565b9050600073ffffffffffffffffffffffffffffffffffffffff168173ffffffffffffffffffffffffffffffffffffffff1614611e745760006040517f73c6ac6e000000000000000000000000000000000000000000000000000000008152600401611e6b9190612223565b60405180910390fd5b505050565b611e84838383611f3d565b611f3857600073ffffffffffffffffffffffffffffffffffffffff168373ffffffffffffffffffffffffffffffffffffffff1603611ef957806040517f7e273289000000000000000000000000000000000000000000000000000000008152600401611ef091906123c6565b60405180910390fd5b81816040517f177e802f000000000000000000000000000000000000000000000000000000008152600401611f2f92919061299e565b60405180910390fd5b505050565b60008073ffffffffffffffffffffffffffffffffffffffff168373ffffffffffffffffffffffffffffffffffffffff1614158015611ff557508273ffffffffffffffffffffffffffffffffffffffff168473ffffffffffffffffffffffffffffffffffffffff161480611fb65750611fb58484610d33565b5b80611ff457508273ffffffffffffffffffffffffffffffffffffffff16611fdc83610f4f565b73ffffffffffffffffffffffffffffffffffffffff16145b5b90509392505050565b6000604051905090565b600080fd5b600080fd5b60007fffffffff0000000000000000000000000000000000000000000000000000000082169050919050565b61204781612012565b811461205257600080fd5b50565b6000813590506120648161203e565b92915050565b6000602082840312156120805761207f612008565b5b600061208e84828501612055565b91505092915050565b60008115159050919050565b6120ac81612097565b82525050565b60006020820190506120c760008301846120a3565b92915050565b600081519050919050565b600082825260208201905092915050565b60005b838110156121075780820151818401526020810190506120ec565b60008484015250505050565b6000601f19601f8301169050919050565b600061212f826120cd565b61213981856120d8565b93506121498185602086016120e9565b61215281612113565b840191505092915050565b600060208201905081810360008301526121778184612124565b905092915050565b6000819050919050565b6121928161217f565b811461219d57600080fd5b50565b6000813590506121af81612189565b92915050565b6000602082840312156121cb576121ca612008565b5b60006121d9848285016121a0565b91505092915050565b600073ffffffffffffffffffffffffffffffffffffffff82169050919050565b600061220d826121e2565b9050919050565b61221d81612202565b82525050565b60006020820190506122386000830184612214565b92915050565b61224781612202565b811461225257600080fd5b50565b6000813590506122648161223e565b92915050565b6000806040838503121561228157612280612008565b5b600061228f85828601612255565b92505060206122a0858286016121a0565b9150509250929050565b6000602082840312156122c0576122bf612008565b5b60006122ce84828501612255565b91505092915050565b600081519050919050565b600082825260208201905092915050565b6000819050602082019050919050565b61230c8161217f565b82525050565b600061231e8383612303565b60208301905092915050565b6000602082019050919050565b6000612342826122d7565b61234c81856122e2565b9350612357836122f3565b8060005b8381101561238857815161236f8882612312565b975061237a8361232a565b92505060018101905061235b565b5085935050505092915050565b600060208201905081810360008301526123af8184612337565b905092915050565b6123c08161217f565b82525050565b60006020820190506123db60008301846123b7565b92915050565b6000806000606084860312156123fa576123f9612008565b5b600061240886828701612255565b935050602061241986828701612255565b925050604061242a868287016121a0565b9150509250925092565b61243d81612097565b811461244857600080fd5b50565b60008135905061245a81612434565b92915050565b6000806040838503121561247757612476612008565b5b600061248585828601612255565b92505060206124968582860161244b565b9150509250929050565b600081519050919050565b600082825260208201905092915050565b6000819050602082019050919050565b600082825260208201905092915050565b60006124e8826120cd565b6124f281856124cc565b93506125028185602086016120e9565b61250b81612113565b840191505092915050565b600061252283836124dd565b905092915050565b6000602082019050919050565b6000612542826124a0565b61254c81856124ab565b93508360208202850161255e856124bc565b8060005b8581101561259a578484038952815161257b8582612516565b94506125868361252a565b925060208a01995050600181019050612562565b50829750879550505050505092915050565b600060408201905081810360008301526125c68185612337565b905081810360208301526125da8184612537565b90509392505050565b600080fd5b600080fd5b7f4e487b7100000000000000000000000000000000000000000000000000000000600052604160045260246000fd5b61262582612113565b810181811067ffffffffffffffff82111715612644576126436125ed565b5b80604052505050565b6000612657611ffe565b9050612663828261261c565b919050565b600067ffffffffffffffff821115612683576126826125ed565b5b61268c82612113565b9050602081019050919050565b82818337600083830152505050565b60006126bb6126b684612668565b61264d565b9050828152602081018484840111156126d7576126d66125e8565b5b6126e2848285612699565b509392505050565b600082601f8301126126ff576126fe6125e3565b5b813561270f8482602086016126a8565b91505092915050565b6000806000806080858703121561273257612731612008565b5b600061274087828801612255565b945050602061275187828801612255565b9350506040612762878288016121a0565b925050606085013567ffffffffffffffff8111156127835761278261200d565b5b61278f878288016126ea565b91505092959194509250565b600067ffffffffffffffff8211156127b6576127b56125ed565b5b6127bf82612113565b9050602081019050919050565b60006127df6127da8461279b565b61264d565b9050828152602081018484840111156127fb576127fa6125e8565b5b612806848285612699565b509392505050565b600082601f830112612823576128226125e3565b5b81356128338482602086016127cc565b91505092915050565b6000806040838503121561285357612852612008565b5b600061286185828601612255565b925050602083013567ffffffffffffffff8111156128825761288161200d565b5b61288e8582860161280e565b9150509250929050565b600080604083850312156128af576128ae612008565b5b60006128bd85828601612255565b92505060206128ce85828601612255565b9150509250929050565b7f4e487b7100000000000000000000000000000000000000000000000000000000600052602260045260246000fd5b6000600282049050600182168061291f57607f821691505b602082108103612932576129316128d8565b5b50919050565b7f4e487b7100000000000000000000000000000000000000000000000000000000600052603260045260246000fd5b600060608201905061297c6000830186612214565b61298960208301856123b7565b6129966040830184612214565b949350505050565b60006040820190506129b36000830185612214565b6129c060208301846123b7565b9392505050565b7f4552433732313a20696e76616c696420746f6b656e2049440000000000000000600082015250565b60006129fd6018836120d8565b9150612a08826129c7565b602082019050919050565b60006020820190508181036000830152612a2c816129f0565b9050919050565b7f4e487b7100000000000000000000000000000000000000000000000000000000600052601160045260246000fd5b6000612a6d8261217f565b91507fffffffffffffffffffffffffffffffffffffffffffffffffffffffffffffffff8203612a9f57612a9e612a33565b5b600182019050919050565b60008190508160005260206000209050919050565b60006020601f8301049050919050565b600082821b905092915050565b600060088302612b0c7fffffffffffffffffffffffffffffffffffffffffffffffffffffffffffffffff82612acf565b612b168683612acf565b95508019841693508086168417925050509392505050565b6000819050919050565b6000612b53612b4e612b498461217f565b612b2e565b61217f565b9050919050565b6000819050919050565b612b6d83612b38565b612b81612b7982612b5a565b848454612adc565b825550505050565b600090565b612b96612b89565b612ba1818484612b64565b505050565b5b81811015612bc557612bba600082612b8e565b600181019050612ba7565b5050565b601f821115612c0a57612bdb81612aaa565b612be484612abf565b81016020851015612bf3578190505b612c07612bff85612abf565b830182612ba6565b50505b505050565b600082821c905092915050565b6000612c2d60001984600802612c0f565b1980831691505092915050565b6000612c468383612c1c565b9150826002028217905092915050565b612c5f826120cd565b67ffffffffffffffff811115612c7857612c776125ed565b5b612c828254612907565b612c8d828285612bc9565b600060209050601f831160018114612cc05760008415612cae578287015190505b612cb88582612c3a565b865550612d20565b601f198416612cce86612aaa565b60005b82811015612cf657848901518255600182019150602085019450602081019050612cd1565b86831015612d135784890151612d0f601f891682612c1c565b8355505b6001600288020188555050505b505050505050565b600081519050919050565b600082825260208201905092915050565b6000612d4f82612d28565b612d598185612d33565b9350612d698185602086016120e9565b612d7281612113565b840191505092915050565b6000608082019050612d926000830187612214565b612d9f6020830186612214565b612dac60408301856123b7565b8181036060830152612dbe8184612d44565b905095945050505050565b600081519050612dd88161203e565b92915050565b600060208284031215612df457612df3612008565b5b6000612e0284828501612dc9565b91505092915050565b6000612e168261217f565b9150612e218361217f565b9250828203905081811115612e3957612e38612a33565b5b92915050565b7f4e487b7100000000000000000000000000000000000000000000000000000000600052603160045260246000fdfea26469706673582212205f658792b6f39291254b6da7af8b2eb62992ee7b4b07dcb38fb4c35fdb52d7b664736f6c634300081c0033",
  "linkReferences": {},
  "deployedLinkReferences": {}
}