{
  "address": "0x4F51626f276715b6c660C33B2552C47f1618b572",
  "abi": [
    {
      "inputs": [],
      "stateMutability": "nonpayable",
      "type": "constructor"
    },
    {
      "inputs": [],
      "name": "decimals",
      "outputs": [
        {
          "internalType": "uint8",
          "name": "",
          "type": "uint8"
        }
      ],
      "stateMutability": "pure",
      "type": "function"
    },
    {
      "inputs": [],
      "name": "description",
      "outputs": [
        {
          "internalType": "string",
          "name": "",
          "type": "string"
        }
      ],
      "stateMutability": "pure",
      "type": "function"
    },
    {
      "inputs": [
        {
          "internalType": "uint80",
          "name": "",
          "type": "uint80"
        }
      ],
      "name": "getRoundData",
      "outputs": [
        {
          "internalType": "uint80",
          "name": "roundId",
          "type": "uint80"
        },
        {
          "internalType": "int256",
          "name": "answer",
          "type": "int256"
        },
        {
          "internalType": "uint256",
          "name": "startedAt",
          "type": "uint256"
        },
        {
          "internalType": "uint256",
          "name": "updatedAt",
          "type": "uint256"
        },
        {
          "internalType": "uint80",
          "name": "answeredInRound",
          "type": "uint80"
        }
      ],
      "stateMutability": "pure",
      "type": "function"
    },
    {
      "inputs": [],
      "name": "latestRoundData",
      "outputs": [
        {
          "internalType": "uint80",
          "name": "roundId",
          "type": "uint80"
        },
        {
          "internalType": "int256",
          "name": "answer",
          "type": "int256"
        },
        {
          "internalType": "uint256",
          "name": "startedAt",
          "type": "uint256"
        },
        {
          "internalType": "uint256",
          "name": "updatedAt",
          "type": "uint256"
        },
        {
          "internalType": "uint80",
          "name": "answeredInRound",
          "type": "uint80"
        }
      ],
      "stateMutability": "view",
      "type": "function"
    },
    {
      "inputs": [],
      "name": "owner",
      "outputs": [
        {
          "internalType": "address",
          "name": "",
          "type": "address"
        }
      ],
      "stateMutability": "view",
      "type": "function"
    },
    {
      "inputs": [
        {
          "internalType": "int256",
          "name": "newProgress",
          "type": "int256"
        }
      ],
      "name": "setProgress",
      "outputs": [],
      "stateMutability": "nonpayable",
      "type": "function"
    },
    {
      "inputs": [],
      "name": "version",
      "outputs": [
        {
          "internalType": "uint256",
          "name": "",
          "type": "uint256"
        }
      ],
      "stateMutability": "pure",
      "type": "function"
    }
  ],
  "transactionHash": "0xebad5ac4ed5fa4c84355bf34102e9ebac4e559ff0820fc2c85da581ed7a84a9d",
  "args": [],
  "numDeployments": 1,
  "solcInputHash": "00afbad42366f7410992b8152021a645",
  "bytecode": "0x6080604052348015600f57600080fd5b5033600160006101000a81548173ffffffffffffffffffffffffffffffffffffffff021916908373ffffffffffffffffffffffffffffffffffffffff16021790555061076c806100606000396000f3fe608060405234801561001057600080fd5b506004361061007d5760003560e01c80637284e4161161005b5780637284e416146100da5780638da5cb5b146100f85780639a6fc8f514610116578063feaf968c1461014a5761007d565b8063313ce5671461008257806354fd4d50146100a057806357946777146100be575b600080fd5b61008a61016c565b604051610097919061032c565b60405180910390f35b6100a8610171565b6040516100b59190610360565b60405180910390f35b6100d860048036038101906100d391906103b6565b61017a565b005b6100e2610265565b6040516100ef9190610473565b60405180910390f35b610100610285565b60405161010d91906104d6565b60405180910390f35b610130600480360381019061012b9190610533565b6102ab565b60405161014195949392919061057e565b60405180910390f35b6101526102ee565b60405161016395949392919061057e565b60405180910390f35b600090565b60006001905090565b600160009054906101000a900473ffffffffffffffffffffffffffffffffffffffff1673ffffffffffffffffffffffffffffffffffffffff163373ffffffffffffffffffffffffffffffffffffffff161461020a576040517f08c379a00000000000000000000000000000000000000000000000000000000081526004016102019061061d565b60405180910390fd5b6000811215801561021c575060648113155b61025b576040517f08c379a000000000000000000000000000000000000000000000000000000000815260040161025290610689565b60405180910390fd5b8060008190555050565b606060405180606001604052806021815260200161071660219139905090565b600160009054906101000a900473ffffffffffffffffffffffffffffffffffffffff1681565b60008060008060006040517f08c379a00000000000000000000000000000000000000000000000000000000081526004016102e5906106f5565b60405180910390fd5b6000806000806000806000546000806000945094509450945094509091929394565b600060ff82169050919050565b61032681610310565b82525050565b6000602082019050610341600083018461031d565b92915050565b6000819050919050565b61035a81610347565b82525050565b60006020820190506103756000830184610351565b92915050565b600080fd5b6000819050919050565b61039381610380565b811461039e57600080fd5b50565b6000813590506103b08161038a565b92915050565b6000602082840312156103cc576103cb61037b565b5b60006103da848285016103a1565b91505092915050565b600081519050919050565b600082825260208201905092915050565b60005b8381101561041d578082015181840152602081019050610402565b60008484015250505050565b6000601f19601f8301169050919050565b6000610445826103e3565b61044f81856103ee565b935061045f8185602086016103ff565b61046881610429565b840191505092915050565b6000602082019050818103600083015261048d818461043a565b905092915050565b600073ffffffffffffffffffffffffffffffffffffffff82169050919050565b60006104c082610495565b9050919050565b6104d0816104b5565b82525050565b60006020820190506104eb60008301846104c7565b92915050565b600069ffffffffffffffffffff82169050919050565b610510816104f1565b811461051b57600080fd5b50565b60008135905061052d81610507565b92915050565b6000602082840312156105495761054861037b565b5b60006105578482850161051e565b91505092915050565b610569816104f1565b82525050565b61057881610380565b82525050565b600060a0820190506105936000830188610560565b6105a0602083018761056f565b6105ad6040830186610351565b6105ba6060830185610351565b6105c76080830184610560565b9695505050505050565b7f4e6f74206f776e65720000000000000000000000000000000000000000000000600082015250565b60006106076009836103ee565b9150610612826105d1565b602082019050919050565b60006020820190508181036000830152610636816105fa565b9050919050565b7f496e76616c69642070726f677265737300000000000000000000000000000000600082015250565b60006106736010836103ee565b915061067e8261063d565b602082019050919050565b600060208201905081810360008301526106a281610666565b9050919050565b7f4e6f7420696d706c656d656e7465640000000000000000000000000000000000600082015250565b60006106df600f836103ee565b91506106ea826106a9565b602082019050919050565b6000602082019050818103600083015261070e816106d2565b905091905056fe437573746f6d20636f757273652070726f67726573732061676772656761746f72a264697066735822122092893559b1e6000d1a8a43f7ad443ce8eab0f2670cf2447ce8e193fabdb146f964736f6c634300081c0033",
  "devdoc": {
    "kind": "dev",
    "methods": {
      "setProgress(int256)": {
        "details": "设置新的进度值(0~100)。外部合约或前端可直接调用."
      }
    },
    "title": "CourseProgressAggregator",
    "version": 1
  },
  "userdoc": {
    "kind": "user",
    "methods": {
      "latestRoundData()": {
        "notice": "Chainlink Aggregator 标准接口：返回最新一轮数据         这里仅返回 _currentProgress，其他字段都用0代替"
      }
    },
    "notice": "自定义“课程进度聚合器”合约。模拟Chainlink Aggregator，可被外部(前端/节点)调用以写入进度值。         其他合约(例如 MyOracle.sol)通过latestRoundData()来读取当前进度.",
    "version": 1
  },
  "storageLayout": {
    "storage": [
      {
        "astId": 217,
        "contract": "contracts/CourseProgressAggregator.sol:CourseProgressAggregator",
        "label": "_currentProgress",
        "offset": 0,
        "slot": "0",
        "type": "t_int256"
      },
      {
        "astId": 219,
        "contract": "contracts/CourseProgressAggregator.sol:CourseProgressAggregator",
        "label": "owner",
        "offset": 0,
        "slot": "1",
        "type": "t_address"
      }
    ],
    "types": {
      "t_address": {
        "encoding": "inplace",
        "label": "address",
        "numberOfBytes": "20"
      },
      "t_int256": {
        "encoding": "inplace",
        "label": "int256",
        "numberOfBytes": "32"
      }
    }
  }
}